{
  "transactions": [
    {
      "hash": "0x3d3e354707bbad3c28ebc84295a76ce1b41d54a293ce1ccdd55764fc4738e152",
      "transactionType": "CALL",
      "contractName": "LinkToken",
      "contractAddress": "0x779877a7b0d9e8603169ddbd7836e478b4624789",
      "function": "transferAndCall(address,uint256,bytes)",
      "arguments": [
        "0x9DdfaCa8183c41ad55329BdeeD9F6A8d53168B1B",
        "3000000000000000000",
        "0x117f18a214bb5bf63292efb428e39d35f0f354060837bd9867ccfc146b128712"
      ],
      "transaction": {
        "from": "0x1eeec2633766a47ccf89193126d1f2cccf933eb1",
        "to": "0x779877a7b0d9e8603169ddbd7836e478b4624789",
        "gas": "0x1c1ff",
        "value": "0x0",
        "input": "0x4000aea00000000000000000000000009ddfaca8183c41ad55329bdeed9f6a8d53168b1b00000000000000000000000000000000000000000000000029a2241af62c000000000000000000000000000000000000000000000000000000000000000000600000000000000000000000000000000000000000000000000000000000000020117f18a214bb5bf63292efb428e39d35f0f354060837bd9867ccfc146b128712",
        "nonce": "0x3",
        "chainId": "0xaa36a7"
      },
      "additionalContracts": [],
      "isFixedGasLimit": false
    }
  ],
  "receipts": [
    {
      "status": "0x1",
      "cumulativeGasUsed": "0x1090b7b",
      "logs": [
        {
          "address": "0x779877a7b0d9e8603169ddbd7836e478b4624789",
          "topics": [
            "0xddf252ad1be2c89b69c2b068fc378daa952ba7f163c4a11628f55a4df523b3ef",
            "0x0000000000000000000000001eeec2633766a47ccf89193126d1f2cccf933eb1",
            "0x0000000000000000000000009ddfaca8183c41ad55329bdeed9f6a8d53168b1b"
          ],
          "data": "0x00000000000000000000000000000000000000000000000029a2241af62c0000",
          "blockHash": "0x0aa057fdd02c4b0cd56aaf0b42eb86fc1de0490fa2c69fbcf94b2eb8ef884477",
          "blockNumber": "0x5fe685",
          "transactionHash": "0x3d3e354707bbad3c28ebc84295a76ce1b41d54a293ce1ccdd55764fc4738e152",
          "transactionIndex": "0x50",
          "logIndex": "0x95",
          "removed": false
        },
        {
          "address": "0x779877a7b0d9e8603169ddbd7836e478b4624789",
          "topics": [
            "0xe19260aff97b920c7df27010903aeb9c8d2be5d310a2c67824cf3f15396e4c16",
            "0x0000000000000000000000001eeec2633766a47ccf89193126d1f2cccf933eb1",
            "0x0000000000000000000000009ddfaca8183c41ad55329bdeed9f6a8d53168b1b"
          ],
          "data": "0x00000000000000000000000000000000000000000000000029a2241af62c000000000000000000000000000000000000000000000000000000000000000000400000000000000000000000000000000000000000000000000000000000000020117f18a214bb5bf63292efb428e39d35f0f354060837bd9867ccfc146b128712",
          "blockHash": "0x0aa057fdd02c4b0cd56aaf0b42eb86fc1de0490fa2c69fbcf94b2eb8ef884477",
          "blockNumber": "0x5fe685",
          "transactionHash": "0x3d3e354707bbad3c28ebc84295a76ce1b41d54a293ce1ccdd55764fc4738e152",
          "transactionIndex": "0x50",
          "logIndex": "0x96",
          "removed": false
        },
        {
          "address": "0x9ddfaca8183c41ad55329bdeed9f6a8d53168b1b",
          "topics": [
            "0x1ced9348ff549fceab2ac57cd3a9de38edaaab274b725ee82c23e8fc8c4eec7a",
            "0x117f18a214bb5bf63292efb428e39d35f0f354060837bd9867ccfc146b128712"
          ],
          "data": "0x000000000000000000000000000000000000000000000000000000000000000000000000000000000000000000000000000000000000000029a2241af62c0000",
          "blockHash": "0x0aa057fdd02c4b0cd56aaf0b42eb86fc1de0490fa2c69fbcf94b2eb8ef884477",
          "blockNumber": "0x5fe685",
          "transactionHash": "0x3d3e354707bbad3c28ebc84295a76ce1b41d54a293ce1ccdd55764fc4738e152",
          "transactionIndex": "0x50",
          "logIndex": "0x97",
          "removed": false
        }
      ],
      "logsBloom": "0x00000004000000000000000000000000000000000020000000000800020000000000000000000000000000000000000020000000000000000000000000000000000000000000000000000008000000000000000000000000000020000020000008000000000000000000000000000000000000000000000000000010000040000000000000000000000000010000800000000020000000000000000000000000000000000000000000000000010000000000002000000000000004000000000000000002000000000000000000000000000000000000000100000000800000000010000000000000c00000000000000000000000000000000000100000000000",
      "type": "0x2",
      "transactionHash": "0x3d3e354707bbad3c28ebc84295a76ce1b41d54a293ce1ccdd55764fc4738e152",
      "transactionIndex": "0x50",
      "blockHash": "0x0aa057fdd02c4b0cd56aaf0b42eb86fc1de0490fa2c69fbcf94b2eb8ef884477",
      "blockNumber": "0x5fe685",
      "gasUsed": "0x133b1",
      "effectiveGasPrice": "0x8cfb8770",
      "from": "0x1eeec2633766a47ccf89193126d1f2cccf933eb1",
      "to": "0x779877a7b0d9e8603169ddbd7836e478b4624789",
      "contractAddress": null
    }
  ],
  "libraries": [],
  "pending": [],
  "returns": {},
  "timestamp": 1720638387,
  "chain": 11155111,
  "commit": "a227ef2"
}